{
  "_format": "hh-sol-artifact-1",
  "contractName": "NFTLendAuctionV1",
  "sourceName": "contracts/NFTLendAuctionV1.sol",
  "abi": [
    {
      "inputs": [
        {
          "internalType": "address",
          "name": "_govAddress",
          "type": "address"
        }
      ],
      "stateMutability": "nonpayable",
      "type": "constructor"
    },
    {
      "inputs": [],
      "name": "AccessControlBadConfirmation",
      "type": "error"
    },
    {
      "inputs": [
        {
          "internalType": "address",
          "name": "account",
          "type": "address"
        },
        {
          "internalType": "bytes32",
          "name": "neededRole",
          "type": "bytes32"
        }
      ],
      "name": "AccessControlUnauthorizedAccount",
      "type": "error"
    },
    {
      "inputs": [],
      "name": "ReentrancyGuardReentrantCall",
      "type": "error"
    },
    {
      "anonymous": false,
      "inputs": [
        {
          "indexed": true,
          "internalType": "address",
          "name": "nftAddress",
          "type": "address"
        },
        {
          "indexed": false,
          "internalType": "bool",
          "name": "allowed",
          "type": "bool"
        }
      ],
      "name": "AllowedNFTUpdated",
      "type": "event"
    },
    {
      "anonymous": false,
      "inputs": [
        {
          "indexed": false,
          "internalType": "uint256",
          "name": "newBidCancelPeriod",
          "type": "uint256"
        }
      ],
      "name": "BidCancelPeriodUpdated",
      "type": "event"
    },
    {
      "anonymous": false,
      "inputs": [
        {
          "indexed": true,
          "internalType": "address",
          "name": "user",
          "type": "address"
        },
        {
          "indexed": false,
          "internalType": "uint256",
          "name": "amount",
          "type": "uint256"
        },
        {
          "indexed": true,
          "internalType": "address",
          "name": "to",
          "type": "address"
        }
      ],
      "name": "FundsWithdrawn",
      "type": "event"
    },
    {
      "anonymous": false,
      "inputs": [
        {
          "indexed": true,
          "internalType": "uint256",
          "name": "loanId",
          "type": "uint256"
        },
        {
          "indexed": true,
          "internalType": "address",
          "name": "borrower",
          "type": "address"
        },
        {
          "indexed": true,
          "internalType": "address",
          "name": "lender",
          "type": "address"
        },
        {
          "indexed": false,
          "internalType": "uint256",
          "name": "startTime",
          "type": "uint256"
        }
      ],
      "name": "LoanAccepted",
      "type": "event"
    },
    {
      "anonymous": false,
      "inputs": [
        {
          "indexed": true,
          "internalType": "uint256",
          "name": "loanId",
          "type": "uint256"
        },
        {
          "indexed": true,
          "internalType": "address",
          "name": "lender",
          "type": "address"
        }
      ],
      "name": "LoanBidCancelled",
      "type": "event"
    },
    {
      "anonymous": false,
      "inputs": [
        {
          "indexed": true,
          "internalType": "uint256",
          "name": "loanId",
          "type": "uint256"
        },
        {
          "indexed": true,
          "internalType": "address",
          "name": "lender",
          "type": "address"
        },
        {
          "indexed": false,
          "internalType": "uint256",
          "name": "currentInterestRate",
          "type": "uint256"
        }
      ],
      "name": "LoanBidPlaced",
      "type": "event"
    },
    {
      "anonymous": false,
      "inputs": [
        {
          "indexed": true,
          "internalType": "uint256",
          "name": "loanId",
          "type": "uint256"
        },
        {
          "indexed": true,
          "internalType": "address",
          "name": "lender",
          "type": "address"
        }
      ],
      "name": "LoanDefaulted",
      "type": "event"
    },
    {
      "anonymous": false,
      "inputs": [
        {
          "indexed": true,
          "internalType": "uint256",
          "name": "loanId",
          "type": "uint256"
        },
        {
          "indexed": true,
          "internalType": "address",
          "name": "borrower",
          "type": "address"
        }
      ],
      "name": "LoanDelisted",
      "type": "event"
    },
    {
      "anonymous": false,
      "inputs": [
        {
          "indexed": true,
          "internalType": "uint256",
          "name": "loanId",
          "type": "uint256"
        },
        {
          "indexed": true,
          "internalType": "address",
          "name": "borrower",
          "type": "address"
        },
        {
          "indexed": false,
          "internalType": "address",
          "name": "nftAddress",
          "type": "address"
        },
        {
          "indexed": false,
          "internalType": "uint256",
          "name": "tokenId",
          "type": "uint256"
        },
        {
          "indexed": false,
          "internalType": "uint256",
          "name": "loanAmount",
          "type": "uint256"
        },
        {
          "indexed": false,
          "internalType": "uint256",
          "name": "maxInterestRate",
          "type": "uint256"
        },
        {
          "indexed": false,
          "internalType": "uint256",
          "name": "duration",
          "type": "uint256"
        },
        {
          "indexed": false,
          "internalType": "enum NFTLendAuctionV1.LoanType",
          "name": "loanType",
          "type": "uint8"
        }
      ],
      "name": "LoanListed",
      "type": "event"
    },
    {
      "anonymous": false,
      "inputs": [
        {
          "indexed": true,
          "internalType": "uint256",
          "name": "loanId",
          "type": "uint256"
        },
        {
          "indexed": true,
          "internalType": "address",
          "name": "borrower",
          "type": "address"
        },
        {
          "indexed": false,
          "internalType": "uint256",
          "name": "repaymentAmount",
          "type": "uint256"
        }
      ],
      "name": "LoanRepaid",
      "type": "event"
    },
    {
      "anonymous": false,
      "inputs": [
        {
          "indexed": false,
          "internalType": "uint256",
          "name": "newMaxActiveLoans",
          "type": "uint256"
        }
      ],
      "name": "MaxActiveLoansUpdated",
      "type": "event"
    },
    {
      "anonymous": false,
      "inputs": [
        {
          "indexed": true,
          "internalType": "address",
          "name": "recipient",
          "type": "address"
        },
        {
          "indexed": false,
          "internalType": "uint256",
          "name": "amount",
          "type": "uint256"
        }
      ],
      "name": "PendingWithdrawalAdded",
      "type": "event"
    },
    {
      "anonymous": false,
      "inputs": [
        {
          "indexed": false,
          "internalType": "uint256",
          "name": "newFeeRate",
          "type": "uint256"
        }
      ],
      "name": "ProtocolFeeRateUpdated",
      "type": "event"
    },
    {
      "anonymous": false,
      "inputs": [
        {
          "indexed": false,
          "internalType": "address",
          "name": "to",
          "type": "address"
        },
        {
          "indexed": false,
          "internalType": "uint256",
          "name": "amount",
          "type": "uint256"
        }
      ],
      "name": "ProtocolFeesWithdrawn",
      "type": "event"
    },
    {
      "anonymous": false,
      "inputs": [
        {
          "indexed": true,
          "internalType": "bytes32",
          "name": "role",
          "type": "bytes32"
        },
        {
          "indexed": true,
          "internalType": "bytes32",
          "name": "previousAdminRole",
          "type": "bytes32"
        },
        {
          "indexed": true,
          "internalType": "bytes32",
          "name": "newAdminRole",
          "type": "bytes32"
        }
      ],
      "name": "RoleAdminChanged",
      "type": "event"
    },
    {
      "anonymous": false,
      "inputs": [
        {
          "indexed": true,
          "internalType": "bytes32",
          "name": "role",
          "type": "bytes32"
        },
        {
          "indexed": true,
          "internalType": "address",
          "name": "account",
          "type": "address"
        },
        {
          "indexed": true,
          "internalType": "address",
          "name": "sender",
          "type": "address"
        }
      ],
      "name": "RoleGranted",
      "type": "event"
    },
    {
      "anonymous": false,
      "inputs": [
        {
          "indexed": true,
          "internalType": "bytes32",
          "name": "role",
          "type": "bytes32"
        },
        {
          "indexed": true,
          "internalType": "address",
          "name": "account",
          "type": "address"
        },
        {
          "indexed": true,
          "internalType": "address",
          "name": "sender",
          "type": "address"
        }
      ],
      "name": "RoleRevoked",
      "type": "event"
    },
    {
      "inputs": [],
      "name": "DEFAULT_ADMIN_ROLE",
      "outputs": [
        {
          "internalType": "bytes32",
          "name": "",
          "type": "bytes32"
        }
      ],
      "stateMutability": "view",
      "type": "function"
    },
    {
      "inputs": [],
      "name": "MANAGER_ROLE",
      "outputs": [
        {
          "internalType": "bytes32",
          "name": "",
          "type": "bytes32"
        }
      ],
      "stateMutability": "view",
      "type": "function"
    },
    {
      "inputs": [],
      "name": "OWNER_ROLE",
      "outputs": [
        {
          "internalType": "bytes32",
          "name": "",
          "type": "bytes32"
        }
      ],
      "stateMutability": "view",
      "type": "function"
    },
    {
      "inputs": [
        {
          "internalType": "uint256",
          "name": "loanId",
          "type": "uint256"
        }
      ],
      "name": "acceptLoan",
      "outputs": [],
      "stateMutability": "nonpayable",
      "type": "function"
    },
    {
      "inputs": [
        {
          "internalType": "uint256",
          "name": "",
          "type": "uint256"
        }
      ],
      "name": "activeLoanIds",
      "outputs": [
        {
          "internalType": "uint256",
          "name": "",
          "type": "uint256"
        }
      ],
      "stateMutability": "view",
      "type": "function"
    },
    {
      "inputs": [
        {
          "internalType": "uint256",
          "name": "",
          "type": "uint256"
        }
      ],
      "name": "activeLoans",
      "outputs": [
        {
          "internalType": "bool",
          "name": "",
          "type": "bool"
        }
      ],
      "stateMutability": "view",
      "type": "function"
    },
    {
      "inputs": [
        {
          "internalType": "address",
          "name": "",
          "type": "address"
        }
      ],
      "name": "allowedNFTContracts",
      "outputs": [
        {
          "internalType": "bool",
          "name": "",
          "type": "bool"
        }
      ],
      "stateMutability": "view",
      "type": "function"
    },
    {
      "inputs": [],
      "name": "bidCancelPeriod",
      "outputs": [
        {
          "internalType": "uint256",
          "name": "",
          "type": "uint256"
        }
      ],
      "stateMutability": "view",
      "type": "function"
    },
    {
      "inputs": [
        {
          "internalType": "uint256",
          "name": "",
          "type": "uint256"
        }
      ],
      "name": "bidTimestamps",
      "outputs": [
        {
          "internalType": "uint256",
          "name": "",
          "type": "uint256"
        }
      ],
      "stateMutability": "view",
      "type": "function"
    },
    {
      "inputs": [
        {
          "internalType": "uint256",
          "name": "loanId",
          "type": "uint256"
        }
      ],
      "name": "cancelBid",
      "outputs": [],
      "stateMutability": "nonpayable",
      "type": "function"
    },
    {
      "inputs": [
        {
          "internalType": "uint256",
          "name": "loanId",
          "type": "uint256"
        }
      ],
      "name": "claimDefaultedLoan",
      "outputs": [],
      "stateMutability": "payable",
      "type": "function"
    },
    {
      "inputs": [
        {
          "internalType": "uint256",
          "name": "loanId",
          "type": "uint256"
        }
      ],
      "name": "delistLoan",
      "outputs": [],
      "stateMutability": "nonpayable",
      "type": "function"
    },
    {
      "inputs": [
        {
          "internalType": "uint256",
          "name": "",
          "type": "uint256"
        }
      ],
      "name": "escrowedFunds",
      "outputs": [
        {
          "internalType": "uint256",
          "name": "",
          "type": "uint256"
        }
      ],
      "stateMutability": "view",
      "type": "function"
    },
    {
      "inputs": [],
      "name": "getActiveLoans",
      "outputs": [
        {
          "internalType": "uint256[]",
          "name": "",
          "type": "uint256[]"
        }
      ],
      "stateMutability": "view",
      "type": "function"
    },
    {
      "inputs": [
        {
          "internalType": "bytes32",
          "name": "role",
          "type": "bytes32"
        }
      ],
      "name": "getRoleAdmin",
      "outputs": [
        {
          "internalType": "bytes32",
          "name": "",
          "type": "bytes32"
        }
      ],
      "stateMutability": "view",
      "type": "function"
    },
    {
      "inputs": [
        {
          "internalType": "uint256",
          "name": "loanId",
          "type": "uint256"
        }
      ],
      "name": "getTotalRepayment",
      "outputs": [
        {
          "internalType": "uint256",
          "name": "",
          "type": "uint256"
        }
      ],
      "stateMutability": "view",
      "type": "function"
    },
    {
      "inputs": [
        {
          "internalType": "address",
          "name": "account",
          "type": "address"
        }
      ],
      "name": "grantManagerRole",
      "outputs": [],
      "stateMutability": "nonpayable",
      "type": "function"
    },
    {
      "inputs": [
        {
          "internalType": "bytes32",
          "name": "role",
          "type": "bytes32"
        },
        {
          "internalType": "address",
          "name": "account",
          "type": "address"
        }
      ],
      "name": "grantRole",
      "outputs": [],
      "stateMutability": "nonpayable",
      "type": "function"
    },
    {
      "inputs": [
        {
          "internalType": "bytes32",
          "name": "role",
          "type": "bytes32"
        },
        {
          "internalType": "address",
          "name": "account",
          "type": "address"
        }
      ],
      "name": "hasRole",
      "outputs": [
        {
          "internalType": "bool",
          "name": "",
          "type": "bool"
        }
      ],
      "stateMutability": "view",
      "type": "function"
    },
    {
      "inputs": [
        {
          "internalType": "address",
          "name": "",
          "type": "address"
        },
        {
          "internalType": "uint256",
          "name": "",
          "type": "uint256"
        }
      ],
      "name": "isCollateralized",
      "outputs": [
        {
          "internalType": "bool",
          "name": "",
          "type": "bool"
        }
      ],
      "stateMutability": "view",
      "type": "function"
    },
    {
      "inputs": [
        {
          "internalType": "address",
          "name": "nftAddress",
          "type": "address"
        },
        {
          "internalType": "uint256",
          "name": "tokenId",
          "type": "uint256"
        },
        {
          "internalType": "uint256",
          "name": "loanAmount",
          "type": "uint256"
        },
        {
          "internalType": "uint256",
          "name": "maxInterestRate",
          "type": "uint256"
        },
        {
          "internalType": "uint256",
          "name": "duration",
          "type": "uint256"
        },
        {
          "internalType": "enum NFTLendAuctionV1.LoanType",
          "name": "loanType",
          "type": "uint8"
        }
      ],
      "name": "listLoan",
      "outputs": [],
      "stateMutability": "nonpayable",
      "type": "function"
    },
    {
      "inputs": [],
      "name": "loanCounter",
      "outputs": [
        {
          "internalType": "uint256",
          "name": "",
          "type": "uint256"
        }
      ],
      "stateMutability": "view",
      "type": "function"
    },
    {
      "inputs": [
        {
          "internalType": "uint256",
          "name": "",
          "type": "uint256"
        }
      ],
      "name": "loans",
      "outputs": [
        {
          "internalType": "address",
          "name": "borrower",
          "type": "address"
        },
        {
          "internalType": "address",
          "name": "lender",
          "type": "address"
        },
        {
          "internalType": "address",
          "name": "nftAddress",
          "type": "address"
        },
        {
          "internalType": "uint256",
          "name": "tokenId",
          "type": "uint256"
        },
        {
          "internalType": "uint256",
          "name": "loanAmount",
          "type": "uint256"
        },
        {
          "internalType": "uint256",
          "name": "maxInterestRate",
          "type": "uint256"
        },
        {
          "internalType": "uint256",
          "name": "currentInterestRate",
          "type": "uint256"
        },
        {
          "internalType": "uint256",
          "name": "duration",
          "type": "uint256"
        },
        {
          "internalType": "uint256",
          "name": "startTime",
          "type": "uint256"
        },
        {
          "internalType": "enum NFTLendAuctionV1.LoanType",
          "name": "loanType",
          "type": "uint8"
        },
        {
          "internalType": "bool",
          "name": "isAccepted",
          "type": "bool"
        }
      ],
      "stateMutability": "view",
      "type": "function"
    },
    {
      "inputs": [],
      "name": "maxActiveLoans",
      "outputs": [
        {
          "internalType": "uint256",
          "name": "",
          "type": "uint256"
        }
      ],
      "stateMutability": "view",
      "type": "function"
    },
    {
      "inputs": [
        {
          "internalType": "address",
          "name": "",
          "type": "address"
        }
      ],
      "name": "pendingWithdrawals",
      "outputs": [
        {
          "internalType": "uint256",
          "name": "",
          "type": "uint256"
        }
      ],
      "stateMutability": "view",
      "type": "function"
    },
    {
      "inputs": [
        {
          "internalType": "uint256",
          "name": "loanId",
          "type": "uint256"
        },
        {
          "internalType": "uint256",
          "name": "interestRate",
          "type": "uint256"
        }
      ],
      "name": "placeBid",
      "outputs": [],
      "stateMutability": "payable",
      "type": "function"
    },
    {
      "inputs": [],
      "name": "protocolFeeBalance",
      "outputs": [
        {
          "internalType": "uint256",
          "name": "",
          "type": "uint256"
        }
      ],
      "stateMutability": "view",
      "type": "function"
    },
    {
      "inputs": [],
      "name": "protocolFeeRate",
      "outputs": [
        {
          "internalType": "uint256",
          "name": "",
          "type": "uint256"
        }
      ],
      "stateMutability": "view",
      "type": "function"
    },
    {
      "inputs": [
        {
          "internalType": "bytes32",
          "name": "role",
          "type": "bytes32"
        },
        {
          "internalType": "address",
          "name": "callerConfirmation",
          "type": "address"
        }
      ],
      "name": "renounceRole",
      "outputs": [],
      "stateMutability": "nonpayable",
      "type": "function"
    },
    {
      "inputs": [
        {
          "internalType": "uint256",
          "name": "loanId",
          "type": "uint256"
        }
      ],
      "name": "repayLoan",
      "outputs": [],
      "stateMutability": "payable",
      "type": "function"
    },
    {
      "inputs": [
        {
          "internalType": "address",
          "name": "account",
          "type": "address"
        }
      ],
      "name": "revokeManagerRole",
      "outputs": [],
      "stateMutability": "nonpayable",
      "type": "function"
    },
    {
      "inputs": [
        {
          "internalType": "bytes32",
          "name": "role",
          "type": "bytes32"
        },
        {
          "internalType": "address",
          "name": "account",
          "type": "address"
        }
      ],
      "name": "revokeRole",
      "outputs": [],
      "stateMutability": "nonpayable",
      "type": "function"
    },
    {
      "inputs": [
        {
          "internalType": "uint256",
          "name": "newBidCancelPeriod",
          "type": "uint256"
        }
      ],
      "name": "setBidCancelPeriod",
      "outputs": [],
      "stateMutability": "nonpayable",
      "type": "function"
    },
    {
      "inputs": [
        {
          "internalType": "uint256",
          "name": "newMax",
          "type": "uint256"
        }
      ],
      "name": "setMaxActiveLoans",
      "outputs": [],
      "stateMutability": "nonpayable",
      "type": "function"
    },
    {
      "inputs": [
        {
          "internalType": "uint256",
          "name": "newFeeRate",
          "type": "uint256"
        }
      ],
      "name": "setProtocolFeeRate",
      "outputs": [],
      "stateMutability": "nonpayable",
      "type": "function"
    },
    {
      "inputs": [
        {
          "internalType": "bytes4",
          "name": "interfaceId",
          "type": "bytes4"
        }
      ],
      "name": "supportsInterface",
      "outputs": [
        {
          "internalType": "bool",
          "name": "",
          "type": "bool"
        }
      ],
      "stateMutability": "view",
      "type": "function"
    },
    {
      "inputs": [],
      "name": "totalPendingWithdrawals",
      "outputs": [
        {
          "internalType": "uint256",
          "name": "",
          "type": "uint256"
        }
      ],
      "stateMutability": "view",
      "type": "function"
    },
    {
      "inputs": [
        {
          "internalType": "address",
          "name": "nftAddress",
          "type": "address"
        },
        {
          "internalType": "bool",
          "name": "allowed",
          "type": "bool"
        }
      ],
      "name": "updateAllowedNFT",
      "outputs": [],
      "stateMutability": "nonpayable",
      "type": "function"
    },
    {
      "inputs": [
        {
          "internalType": "address payable",
          "name": "to",
          "type": "address"
        }
      ],
      "name": "withdrawFunds",
      "outputs": [],
      "stateMutability": "nonpayable",
      "type": "function"
    },
    {
      "inputs": [
        {
          "internalType": "address payable",
          "name": "to",
          "type": "address"
        }
      ],
      "name": "withdrawProtocolFees",
      "outputs": [],
      "stateMutability": "nonpayable",
      "type": "function"
    }
  ],
  "bytecode": "0x60806040526103e860075560c8600a5562015180600f553480156200002357600080fd5b506040516200324738038062003247833981016040819052620000469162000152565b60016000908155620000599082620000bb565b50620000867fb19546dff01e856fb3f010c267a7b1c60363cf8a4664e21cc89c26224620214e82620000bb565b50620000b37f241ecf16d79d0f8dbfb92cbc07fe17840425976cf0667f022fe9877caa831b0882620000bb565b505062000184565b60008281526001602090815260408083206001600160a01b038516845290915281205460ff16620001485760008381526001602081815260408084206001600160a01b0387168086529252808420805460ff19169093179092559051339286917f2f8788117e7eff1d82e926ec794901d17c78024a50270940304540a733656f0d9190a45060016200014c565b5060005b92915050565b6000602082840312156200016557600080fd5b81516001600160a01b03811681146200017d57600080fd5b9392505050565b6130b380620001946000396000f3fe60806040526004361061023b5760003560e01c80639b087af41161012e578063c9a759cb116100ab578063e505d0c51161006f578063e505d0c514610724578063e58378bb14610744578063e5a7bfd014610766578063ec87621c146107a1578063f3f43703146107c357600080fd5b8063c9a759cb1461060e578063d547741f14610624578063deb298c314610644578063dfd79bc914610664578063e1ec3c681461068457600080fd5b8063b13aa2d6116100f2578063b13aa2d614610551578063b489e14714610571578063b93186ba1461059e578063be4dc94f146105be578063c0f6ae97146105de57600080fd5b80639b087af4146104c6578063a217fddf146104f3578063a4563e0314610508578063ab7b1c891461051e578063adfbe22f1461053157600080fd5b80633360874c116101bc57806358f858801161018057806358f858801461043057806368742da6146104465780638f1122481461046657806391d14854146104865780639703ef35146104a657600080fd5b80633360874c1461039757806334d9289e146103b757806336568abe146103cd57806347126f62146103ed57806357c90de51461041d57600080fd5b806326e885e31161020357806326e885e31461030e57806327f8dce31461032e5780632d80caa5146103415780632f2ff15d1461036157806332b814ba1461038157600080fd5b806301ffc9a7146102405780630a22d68c14610275578063121ed2a7146102995780631e837ef3146102bb578063248a9ca3146102dd575b600080fd5b34801561024c57600080fd5b5061026061025b366004612ba6565b6107f0565b60405190151581526020015b60405180910390f35b34801561028157600080fd5b5061028b600b5481565b60405190815260200161026c565b3480156102a557600080fd5b506102ae610827565b60405161026c9190612bd7565b3480156102c757600080fd5b506102db6102d6366004612c1b565b61087f565b005b3480156102e957600080fd5b5061028b6102f8366004612c1b565b6000908152600160208190526040909120015490565b34801561031a57600080fd5b506102db610329366004612c49565b6108d4565b6102db61033c366004612c1b565b6108fb565b34801561034d57600080fd5b506102db61035c366004612c49565b610b86565b34801561036d57600080fd5b506102db61037c366004612c66565b610db2565b34801561038d57600080fd5b5061028b600f5481565b3480156103a357600080fd5b506102db6103b2366004612ca4565b610dde565b3480156103c357600080fd5b5061028b60025481565b3480156103d957600080fd5b506102db6103e8366004612c66565b6110aa565b3480156103f957600080fd5b50610260610408366004612c1b565b60096020526000908152604090205460ff1681565b6102db61042b366004612cd2565b6110e2565b34801561043c57600080fd5b5061028b600a5481565b34801561045257600080fd5b506102db610461366004612c49565b6112e2565b34801561047257600080fd5b506102db610481366004612c1b565b611431565b34801561049257600080fd5b506102606104a1366004612c66565b6114df565b3480156104b257600080fd5b506102db6104c1366004612c1b565b61150a565b3480156104d257600080fd5b5061028b6104e1366004612c1b565b600e6020526000908152604090205481565b3480156104ff57600080fd5b5061028b600081565b34801561051457600080fd5b5061028b600d5481565b6102db61052c366004612c1b565b611727565b34801561053d57600080fd5b506102db61054c366004612c1b565b611a93565b34801561055d57600080fd5b506102db61056c366004612c1b565b611d22565b34801561057d57600080fd5b5061028b61058c366004612c1b565b60046020526000908152604090205481565b3480156105aa57600080fd5b5061028b6105b9366004612c1b565b611db5565b3480156105ca57600080fd5b506102db6105d9366004612c49565b611dd6565b3480156105ea57600080fd5b506102606105f9366004612c49565b60056020526000908152604090205460ff1681565b34801561061a57600080fd5b5061028b60075481565b34801561063057600080fd5b506102db61063f366004612c66565b611df5565b34801561065057600080fd5b506102db61065f366004612c1b565b611e1b565b34801561067057600080fd5b506102db61067f366004612cf4565b612136565b34801561069057600080fd5b5061070d61069f366004612c1b565b600360208190526000918252604090912080546001820154600283015493830154600484015460058501546006860154600787015460088801546009909801546001600160a01b03978816999688169897909616969495939492939192909160ff808216916101009004168b565b60405161026c9b9a99989796959493929190612d8e565b34801561073057600080fd5b5061028b61073f366004612c1b565b612758565b34801561075057600080fd5b5061028b60008051602061303e83398151915281565b34801561077257600080fd5b50610260610781366004612e01565b600660209081526000928352604080842090915290825290205460ff1681565b3480156107ad57600080fd5b5061028b60008051602061305e83398151915281565b3480156107cf57600080fd5b5061028b6107de366004612c49565b600c6020526000908152604090205481565b60006001600160e01b03198216637965db0b60e01b148061082157506301ffc9a760e01b6001600160e01b03198316145b92915050565b6060600880548060200260200160405190810160405280929190818152602001828054801561087557602002820191906000526020600020905b815481526020019060010190808311610861575b5050505050905090565b60008051602061303e833981519152610897816128ec565b60078290556040518281527fc59dcd6979a73a87266c1f2a5d4c4108daee42034d779ef00e960a510c789625906020015b60405180910390a15050565b60006108df816128ec565b6108f760008051602061305e83398151915283610db2565b5050565b6109036128f6565b60008181526003602052604090205481906001600160a01b03166109425760405162461bcd60e51b815260040161093990612e2d565b60405180910390fd5b60008281526003602052604090206009810154610100900460ff1661099d5760405162461bcd60e51b8152602060048201526011602482015270131bd85b881b9bdd081858d8d95c1d1959607a1b6044820152606401610939565b806007015481600801546109b19190612e70565b42116109f25760405162461bcd60e51b815260206004820152601060248201526f131bd85b881b9bdd08195e1c1a5c995960821b6044820152606401610939565b60006109fd84612758565b90506000610a0a82612920565b9050803414610a5b5760405162461bcd60e51b815260206004820152601b60248201527f496e636f72726563742070726f746f636f6c206665652073656e7400000000006044820152606401610939565b80600b6000828254610a6d9190612e70565b909155505060098301805461ff0019169055610a888561293d565b6002830180546001600160a01b0390811660009081526006602090815260408083206003890180548552925291829020805460ff191690559254600187015493549151632142170760e11b8152908316936342842e0e93610af29330939290911691600401612e83565b600060405180830381600087803b158015610b0c57600080fd5b505af1925050508015610b1d575060015b610b395760405162461bcd60e51b815260040161093990612ea7565b60018301546040516001600160a01b039091169086907f13b88e6866f0156d706fecfa22b678de5fc2b749c1d2307f6f47eb541385f1ec90600090a350505050610b836001600055565b50565b610b8e6128f6565b60008051602061303e833981519152610ba6816128ec565b6001600160a01b038216610bfc5760405162461bcd60e51b815260206004820152601960248201527f496e76616c696420726563697069656e742061646472657373000000000000006044820152606401610939565b476000805b600854811015610c51576004600060088381548110610c2257610c22612ed4565b906000526020600020015481526020019081526020016000205482610c479190612e70565b9150600101610c01565b50600d54600090610c628385612eea565b610c6c9190612eea565b905060008111610cc85760405162461bcd60e51b815260206004820152602160248201527f4e6f2066756e647320617661696c61626c6520666f72207769746864726177616044820152601b60fa1b6064820152608401610939565b6000600b8190556040516001600160a01b0387169083908381818185875af1925050503d8060008114610d17576040519150601f19603f3d011682016040523d82523d6000602084013e610d1c565b606091505b5050905080610d615760405162461bcd60e51b815260206004820152601160248201527015da5d1a191c985dd85b0819985a5b1959607a1b6044820152606401610939565b604080516001600160a01b0388168152602081018490527fa087657e3d85162090ffd700fbfdf5070d816f63aa5da00063f6ffd369c8a6db910160405180910390a15050505050610b836001600055565b60008281526001602081905260409091200154610dce816128ec565b610dd883836129ff565b50505050565b60008051602061305e833981519152610df6816128ec565b6001600160a01b038316610e425760405162461bcd60e51b8152602060048201526013602482015272496e76616c6964204e4654206164647265737360681b6044820152606401610939565b6000836001600160a01b03163b11610e9c5760405162461bcd60e51b815260206004820152601960248201527f41646472657373206973206e6f74206120636f6e7472616374000000000000006044820152606401610939565b6040516301ffc9a760e01b81526380ac58cd60e01b60048201526001600160a01b038416906301ffc9a790602401602060405180830381865afa925050508015610f03575060408051601f3d908101601f19168201909252610f0091810190612efd565b60015b610f595760405162461bcd60e51b815260206004820152602160248201527f4661696c656420746f207665726966792045524337323120696e7465726661636044820152606560f81b6064820152608401610939565b80610fb95760405162461bcd60e51b815260206004820152602a60248201527f436f6e747261637420646f6573206e6f7420737570706f72742045524337323160448201526920696e7465726661636560b01b6064820152608401610939565b507f42842e0eb38857a7775b4e7364b2775df7325074d088e7fb39590cd6281184ed6001600160a01b0384163b15801590610ffd57506001600160e01b0319811615155b6110495760405162461bcd60e51b815260206004820152601f60248201527f436f6e7472616374206c61636b7320736166655472616e7366657246726f6d006044820152606401610939565b6001600160a01b038416600081815260056020908152604091829020805460ff191687151590811790915591519182527f7fe996db267f9f17db8865f67d54879fc39a38a2a37afa158a9ea52357e794ac910160405180910390a250505050565b6001600160a01b03811633146110d35760405163334bd91960e11b815260040160405180910390fd5b6110dd8282612a78565b505050565b6110ea6128f6565b60008281526003602052604090205482906001600160a01b03166111205760405162461bcd60e51b815260040161093990612e2d565b6000838152600360205260409020600901548390610100900460ff16156111595760405162461bcd60e51b815260040161093990612f1a565b600084815260036020526040902060068101548410801561117e575080600501548411155b6111ca5760405162461bcd60e51b815260206004820152601960248201527f42696420696e746572657374207261746520696e76616c6964000000000000006044820152606401610939565b806004015434146112155760405162461bcd60e51b8152602060048201526015602482015274125b98dbdc9c9958dd081b1bd85b88185b5bdd5b9d605a1b6044820152606401610939565b60018101546001600160a01b03166000811561123c57506000868152600460205260409020545b6001830180546001600160a01b03191633179055600683018690556000878152600460209081526040808320349055600e90915290204290556001600160a01b0382161580159061128d5750600081115b1561129c5761129c8282612ae5565b604051868152339088907fd1b9c752eb85783f53e7669e993e44d05db062782a8dcd72a7757746cc981f1d9060200160405180910390a350505050506108f76001600055565b6112ea6128f6565b6001600160a01b0381166113325760405162461bcd60e51b815260206004820152600f60248201526e496e76616c6964206164647265737360881b6044820152606401610939565b336000908152600c6020526040902054806113865760405162461bcd60e51b81526020600482015260146024820152734e6f2066756e647320746f20776974686472617760601b6044820152606401610939565b336000908152600c60205260408120819055600d80548392906113aa908490612eea565b90915550506040516001600160a01b0383169082156108fc029083906000818181858888f193505050501580156113e5573d6000803e3d6000fd5b506040518181526001600160a01b0383169033907fe9171aeff46c37ab955b8aff908e14ae9732bd06634fa131226cfe5c25bfd2fb9060200160405180910390a350610b836001600055565b60008051602061303e833981519152611449816128ec565b610e1082116114aa5760405162461bcd60e51b815260206004820152602760248201527f4e65772042696443616e63656c506572696f64206973206c657373207468616e6044820152661018903437bab960c91b6064820152608401610939565b600f8290556040518281527f1d44ca6a9e035c33fe61047920d46da987cf827176af06973df6ff23a92f9d88906020016108c8565b60009182526001602090815260408084206001600160a01b0393909316845291905290205460ff1690565b6115126128f6565b60008181526003602052604090205481906001600160a01b03166115485760405162461bcd60e51b815260040161093990612e2d565b6000828152600360205260409020600901548290610100900460ff16156115815760405162461bcd60e51b815260040161093990612f1a565b60008381526003602052604090206001015483906001600160a01b031633146115de5760405162461bcd60e51b815260206004820152600f60248201526e2737ba103637b0b7103632b73232b960891b6044820152606401610939565b6000848152600360209081526040808320600f54600e9093529220546116049190612e70565b4210156116535760405162461bcd60e51b815260206004820152601760248201527f62696443616e63656c506572696f64206e6f74206d65740000000000000000006044820152606401610939565b6001810180546000878152600460205260408120805491905582546001600160a01b031916909255600583015460068401556001600160a01b031690811580159061169e5750600081115b156116db576040516001600160a01b0383169082156108fc029083906000818181858888f193505050501580156116d9573d6000803e3d6000fd5b505b60018301546040516001600160a01b039091169088907f5677b1e812c0884dd700a8657ca2619da856a4940cb378aa593b217849a21a8a90600090a3505050505050610b836001600055565b61172f6128f6565b60008181526003602052604090205481906001600160a01b03166117655760405162461bcd60e51b815260040161093990612e2d565b60008281526003602052604090205482906001600160a01b0316331461179d5760405162461bcd60e51b815260040161093990612f49565b60008381526003602052604090206009810154610100900460ff166117fc5760405162461bcd60e51b8152602060048201526015602482015274131bd85b881b9bdd081858d8d95c1d1959081e595d605a1b6044820152606401610939565b80600801544210156118505760405162461bcd60e51b815260206004820181905260248201527f52657061796d656e74206265666f7265206c6f616e2073746172742074696d656044820152606401610939565b806007015481600801546118649190612e70565b4211156118ab5760405162461bcd60e51b8152602060048201526015602482015274131bd85b88191d5c985d1a5bdb88195e1c1a5c9959605a1b6044820152606401610939565b60006118b685612758565b905060006118c382612920565b905060006118d083612920565b905060006118de8385612e70565b9050803410156119305760405162461bcd60e51b815260206004820152601a60248201527f496e636f72726563742072657061796d656e7420616d6f756e740000000000006044820152606401610939565b600061193c8386612eea565b90506119488484612e70565b600b60008282546119599190612e70565b909155505060098601805461ff00191690556119748961293d565b60028601546001600160a01b03908116600090815260066020908152604080832060038b015484529091529020805460ff1916905560018701546119b9911682612ae5565b600286015486546003880154604051632142170760e11b81526001600160a01b03938416936342842e0e936119f79330939290911691600401612e83565b600060405180830381600087803b158015611a1157600080fd5b505af1925050508015611a22575060015b611a3e5760405162461bcd60e51b815260040161093990612ea7565b85546040513481526001600160a01b03909116908a907f512d3e65b3e58c2187bb1872aa435dba5bd09c1c03823ba56ab70aac411e4a219060200160405180910390a35050505050505050610b836001600055565b611a9b6128f6565b60008181526003602052604090205481906001600160a01b0316611ad15760405162461bcd60e51b815260040161093990612e2d565b6000828152600360205260409020600901548290610100900460ff1615611b0a5760405162461bcd60e51b815260040161093990612f1a565b60008381526003602052604090205483906001600160a01b03163314611b425760405162461bcd60e51b815260040161093990612f49565b600084815260036020526040902060018101546001600160a01b0316611b9e5760405162461bcd60e51b8152602060048201526011602482015270139bc81b195b99195c88189a59081e595d607a1b6044820152606401610939565b8060040154600460008781526020019081526020016000205414611c145760405162461bcd60e51b815260206004820152602760248201527f457363726f7765642066756e647320646f206e6f74206d61746368206c6f616e60448201526608185b5bdd5b9d60ca1b6064820152608401610939565b600881015415611c5d5760405162461bcd60e51b8152602060048201526014602482015273131bd85b88185b1c9958591e481cdd185c9d195960621b6044820152606401610939565b42600882015560098101805461ff0019166101001790556000858152600460205260408082208054908390558354915190926001600160a01b039092169183156108fc02918491818181858888f19350505050158015611cc1573d6000803e3d6000fd5b506001820154825460088401546040519081526001600160a01b03928316929091169088907f4c979ff2766f744d4178287ddbc4067d12a0685401762a1e243f108cfc91f46c9060200160405180910390a45050505050610b836001600055565b60008051602061303e833981519152611d3a816128ec565b6103e8821115611d805760405162461bcd60e51b815260206004820152601160248201527008ccaca40e4c2e8ca40e8dede40d0d2ced607b1b6044820152606401610939565b600a8290556040518281527f9d2a5010795914ccbdd5a4cdee6a9aa2addac5e44443b519897523b67ddfe9fc906020016108c8565b60088181548110611dc557600080fd5b600091825260209091200154905081565b6000611de1816128ec565b6108f760008051602061305e833981519152835b60008281526001602081905260409091200154611e11816128ec565b610dd88383612a78565b611e236128f6565b60008181526003602052604090205481906001600160a01b0316611e595760405162461bcd60e51b815260040161093990612e2d565b6000828152600360205260409020600901548290610100900460ff1615611e925760405162461bcd60e51b815260040161093990612f1a565b60008381526003602052604090205483906001600160a01b03163314611eca5760405162461bcd60e51b815260040161093990612f49565b600084815260036020818152604080842081516101608101835281546001600160a01b0390811682526001808401548216958301959095526002830154169281019290925292830154606082015260048301546080820152600583015460a0820152600683015460c0820152600783015460e08201526008830154610100820152600983015490929161012084019160ff1690811115611f6c57611f6c612d56565b6001811115611f7d57611f7d612d56565b815260099190910154610100900460ff16151560209182015281015190915060006001600160a01b03821615611fd15750600086815260046020526040812080549190558015611fd157611fd18282612ae5565b6000878152600360208190526040822080546001600160a01b03199081168255600182018054821690556002820180549091169055908101829055600481018290556005810182905560068101829055600781018290556008810191909155600901805461ffff191690556120458761293d565b604080840180516001600160a01b039081166000908152600660209081528482206060890180518452915290849020805460ff191690559151865192519351632142170760e11b81529116926342842e0e926120a692309290600401612e83565b600060405180830381600087803b1580156120c057600080fd5b505af19250505080156120d1575060015b6120ed5760405162461bcd60e51b815260040161093990612ea7565b82516040516001600160a01b039091169088907f94140863d1b77b2db4c5904c78e4343ab9c2a51a27e3e6beef9f21109162d93e90600090a3505050505050610b836001600055565b61213e6128f6565b6001600160a01b038616600090815260056020526040902054869060ff166121a85760405162461bcd60e51b815260206004820152601860248201527f4e465420636f6e7472616374206e6f7420616c6c6f77656400000000000000006044820152606401610939565b6040516331a9108f60e11b8152600481018790528790879033906001600160a01b03841690636352211e90602401602060405180830381865afa1580156121f3573d6000803e3d6000fd5b505050506040513d601f19601f820116820180604052508101906122179190612f74565b6001600160a01b03161461225d5760405162461bcd60e51b815260206004820152600d60248201526c2737ba1027232a1037bbb732b960991b6044820152606401610939565b600754600854106122b05760405162461bcd60e51b815260206004820152601960248201527f416374697665206c6f616e206c696d69742072656163686564000000000000006044820152606401610939565b6001600160a01b03891660009081526006602090815260408083208b845290915290205460ff16156123245760405162461bcd60e51b815260206004820152601d60248201527f4e465420697320616c726561647920636f6c6c61746572616c697a65640000006044820152606401610939565b600087116123825760405162461bcd60e51b815260206004820152602560248201527f4c6f616e20616d6f756e74206d7573742062652067726561746572207468616e604482015264207a65726f60d81b6064820152608401610939565b600086116123e25760405162461bcd60e51b815260206004820152602760248201527f496e7465726573742072617465206d7573742062652067726561746572207468604482015266616e207a65726f60c81b6064820152608401610939565b600085116124425760405162461bcd60e51b815260206004820152602760248201527f4c6f616e206475726174696f6e206d7573742062652067726561746572207468604482015266616e207a65726f60c81b6064820152608401610939565b600184600181111561245657612456612d56565b11156124985760405162461bcd60e51b8152602060048201526011602482015270496e76616c6964206c6f616e207479706560781b6044820152606401610939565b60006002549050604051806101600160405280336001600160a01b0316815260200160006001600160a01b031681526020018b6001600160a01b031681526020018a81526020018981526020018881526020018881526020018781526020016000815260200186600181111561251057612510612d56565b8152600060209182018190528381526003808352604091829020845181546001600160a01b03199081166001600160a01b039283161783559486015160018084018054881692841692909217909155938601516002830180549096169116179093556060840151908301556080830151600483015560a0830151600583015560c0830151600683015560e0830151600783015561010083015160088301556101208301516009830180549192909160ff19169083818111156125d4576125d4612d56565b02179055506101409190910151600991820180549115156101000261ff0019909216919091179055600082815260209190915260408120805460ff1916600190811790915560088054918201815582527ff3f7a9fe364faab93b216da50a3214154f22a0a2b415b23a84c8169e8b636ee301829055600280549161265783612f91565b90915550506001600160a01b038a1660008181526006602090815260408083208d845290915290819020805460ff19166001179055516323b872dd60e01b81526323b872dd906126af90339030908e90600401612e83565b600060405180830381600087803b1580156126c957600080fd5b505af19250505080156126da575060015b6126f65760405162461bcd60e51b815260040161093990612ea7565b336001600160a01b0316817fa9973745a882bc65d3595589890fb1d6ad321250d5785e606c9c41eb61c55fdc8c8c8c8c8c8c60405161273a96959493929190612faa565b60405180910390a3505050506127506001600055565b505050505050565b60008181526003602052604081205482906001600160a01b031661278e5760405162461bcd60e51b815260040161093990612e2d565b60008381526003602052604081209080600983015460ff1660018111156127b7576127b7612d56565b036127e457612710826006015483600401546127d39190612fee565b6127dd9190613005565b90506128d3565b6001600983015460ff1660018111156127ff576127ff612d56565b036128d35760006127108360060154846004015461281d9190612fee565b6128279190613005565b6009840154909150610100900460ff161561288e576000620151808460080154426128529190612eea565b61285c9190613005565b905061016d60008211612870576001612872565b815b61287c9084612fee565b6128869190613005565b9250506128d1565b60006201518084600701546128a39190613005565b905061016d600082116128b75760016128b9565b815b6128c39084612fee565b6128cd9190613005565b9250505b505b8082600401546128e39190612e70565b95945050505050565b610b838133612b6d565b60026000540361291957604051633ee5aeb560e01b815260040160405180910390fd5b6002600055565b6000612710600a54836129339190612fee565b6108219190613005565b6000818152600960205260408120805460ff191690555b6008548110156108f757816008828154811061297257612972612ed4565b9060005260206000200154036129f7576008805461299290600190612eea565b815481106129a2576129a2612ed4565b9060005260206000200154600882815481106129c0576129c0612ed4565b60009182526020909120015560088054806129dd576129dd613027565b600190038181906000526020600020016000905590555050565b600101612954565b6000612a0b83836114df565b612a705760008381526001602081815260408084206001600160a01b0387168086529252808420805460ff19169093179092559051339286917f2f8788117e7eff1d82e926ec794901d17c78024a50270940304540a733656f0d9190a4506001610821565b506000610821565b6000612a8483836114df565b15612a705760008381526001602090815260408083206001600160a01b0386168085529252808320805460ff1916905551339286917ff6391f5c32d9c69d2a47ea670b442974b53935d1edc7fd64eb21e047a839171b9190a4506001610821565b6001600160a01b0382166000908152600c602052604081208054839290612b0d908490612e70565b9250508190555080600d6000828254612b269190612e70565b90915550506040518181526001600160a01b038316907f2cefa31d4fd1171c56fad968423efd62755d8fcbc8b29f0b6d1fafd2c717c88d9060200160405180910390a25050565b612b7782826114df565b6108f75760405163e2517d3f60e01b81526001600160a01b038216600482015260248101839052604401610939565b600060208284031215612bb857600080fd5b81356001600160e01b031981168114612bd057600080fd5b9392505050565b6020808252825182820181905260009190848201906040850190845b81811015612c0f57835183529284019291840191600101612bf3565b50909695505050505050565b600060208284031215612c2d57600080fd5b5035919050565b6001600160a01b0381168114610b8357600080fd5b600060208284031215612c5b57600080fd5b8135612bd081612c34565b60008060408385031215612c7957600080fd5b823591506020830135612c8b81612c34565b809150509250929050565b8015158114610b8357600080fd5b60008060408385031215612cb757600080fd5b8235612cc281612c34565b91506020830135612c8b81612c96565b60008060408385031215612ce557600080fd5b50508035926020909101359150565b60008060008060008060c08789031215612d0d57600080fd5b8635612d1881612c34565b95506020870135945060408701359350606087013592506080870135915060a087013560028110612d4857600080fd5b809150509295509295509295565b634e487b7160e01b600052602160045260246000fd5b60028110612d8a57634e487b7160e01b600052602160045260246000fd5b9052565b6001600160a01b038c811682528b811660208301528a166040820152606081018990526080810188905260a0810187905260c0810186905260e0810185905261010081018490526101608101612de8610120830185612d6c565b8215156101408301529c9b505050505050505050505050565b60008060408385031215612e1457600080fd5b8235612e1f81612c34565b946020939093013593505050565b602080825260139082015272131bd85b88191bd95cc81b9bdd08195e1a5cdd606a1b604082015260600190565b634e487b7160e01b600052601160045260246000fd5b8082018082111561082157610821612e5a565b6001600160a01b039384168152919092166020820152604081019190915260600190565b602080825260139082015272139195081d1c985b9cd9995c8819985a5b1959606a1b604082015260600190565b634e487b7160e01b600052603260045260246000fd5b8181038181111561082157610821612e5a565b600060208284031215612f0f57600080fd5b8151612bd081612c96565b602080825260159082015274131bd85b88185b1c9958591e481858d8d95c1d1959605a1b604082015260600190565b6020808252601190820152702737ba103637b0b7103137b93937bbb2b960791b604082015260600190565b600060208284031215612f8657600080fd5b8151612bd081612c34565b600060018201612fa357612fa3612e5a565b5060010190565b6001600160a01b03871681526020810186905260408101859052606081018490526080810183905260c08101612fe360a0830184612d6c565b979650505050505050565b808202811582820484141761082157610821612e5a565b60008261302257634e487b7160e01b600052601260045260246000fd5b500490565b634e487b7160e01b600052603160045260246000fdfeb19546dff01e856fb3f010c267a7b1c60363cf8a4664e21cc89c26224620214e241ecf16d79d0f8dbfb92cbc07fe17840425976cf0667f022fe9877caa831b08a264697066735822122026808cf09d143c9ef733323f77f370372ea856eaa0260f738a3add647ef3fe0464736f6c63430008170033",
  "linkReferences": {},
  "deployedLinkReferences": {}
}